{
    "abi": [
        {
            "inputs": [
                {
                    "internalType": "address",
                    "name": "tokenBridgeAddress_",
                    "type": "address"
                },
                {
                    "internalType": "uint16",
                    "name": "chainId_",
                    "type": "uint16"
                }
            ],
            "stateMutability": "nonpayable",
            "type": "constructor"
        },
        {
            "inputs": [],
            "name": "chainId",
            "outputs": [
                {
                    "internalType": "uint16",
                    "name": "",
                    "type": "uint16"
                }
            ],
            "stateMutability": "view",
            "type": "function"
        },
        {
            "inputs": [
                {
                    "internalType": "bytes32",
                    "name": "newTargetContractAddress",
                    "type": "bytes32"
                }
            ],
            "name": "changeContractAddress",
            "outputs": [],
            "stateMutability": "nonpayable",
            "type": "function"
        },
        {
            "inputs": [],
            "name": "owner",
            "outputs": [
                {
                    "internalType": "address",
                    "name": "",
                    "type": "address"
                }
            ],
            "stateMutability": "view",
            "type": "function"
        },
        {
            "inputs": [],
            "name": "targetContractAddress",
            "outputs": [
                {
                    "internalType": "bytes32",
                    "name": "",
                    "type": "bytes32"
                }
            ],
            "stateMutability": "view",
            "type": "function"
        },
        {
            "inputs": [],
            "name": "tokenBridgeAddress",
            "outputs": [
                {
                    "internalType": "address",
                    "name": "",
                    "type": "address"
                }
            ],
            "stateMutability": "view",
            "type": "function"
        },
        {
            "inputs": [
                {
                    "internalType": "address",
                    "name": "newOwner",
                    "type": "address"
                }
            ],
            "name": "transferOwnership",
            "outputs": [],
            "stateMutability": "nonpayable",
            "type": "function"
        },
        {
            "inputs": [
                {
                    "internalType": "address",
                    "name": "tokenAddress",
                    "type": "address"
                },
                {
                    "internalType": "uint256",
                    "name": "tokenAmount",
                    "type": "uint256"
                },
                {
                    "internalType": "uint256",
                    "name": "relayerFee",
                    "type": "uint256"
                },
                {
                    "internalType": "bytes32",
                    "name": "receiverAddress",
                    "type": "bytes32"
                },
                {
                    "internalType": "uint64",
                    "name": "nativeSwapAmount",
                    "type": "uint64"
                },
                {
                    "internalType": "uint32",
                    "name": "nonce",
                    "type": "uint32"
                }
            ],
            "name": "transferTokens",
            "outputs": [],
            "stateMutability": "nonpayable",
            "type": "function"
        }
    ],
    "bytecode": {
        "object": "0x608060405234801561001057600080fd5b50604051610d2f380380610d2f83398101604081905261002f9161007d565b600180546001600160a01b0319166001600160a01b0384161790556001805461ffff60a01b1916600160a01b61ffff841602179055600080546001600160a01b0319163317905550506100ca565b6000806040838503121561009057600080fd5b82516001600160a01b03811681146100a757600080fd5b602084015190925061ffff811681146100bf57600080fd5b809150509250929050565b610c56806100d96000396000f3fe608060405234801561001057600080fd5b506004361061007d5760003560e01c80638da5cb5b1161005b5780638da5cb5b146100c05780639a8a0592146100e5578063e188491914610106578063f2fde38b1461011757600080fd5b8063388ca66a1461008257806343afcba114610098578063630fbd5c146100ad575b600080fd5b6002546040519081526020015b60405180910390f35b6100ab6100a63660046108b8565b61012a565b005b6100ab6100bb366004610903565b610190565b6000546001600160a01b03165b6040516001600160a01b03909116815260200161008f565b600154600160a01b900461ffff1660405161ffff909116815260200161008f565b6001546001600160a01b03166100cd565b6100ab610125366004610971565b6103c8565b3361013d6000546001600160a01b031690565b6001600160a01b0316146101845760405162461bcd60e51b81526020600482015260096024820152683737ba1037bbb732b960b91b60448201526064015b60405180910390fd5b61018d81600255565b50565b838510156101f05760405162461bcd60e51b815260206004820152602760248201527f696e73756666696369656e7420746f6b656e416d6f756e7420746f20706179206044820152663932b630bcb2b960c91b606482015260840161017b565b60408051600481526024810182526020810180516001600160e01b031663313ce56760e01b17905290516000916001600160a01b0389169161023291906109b7565b600060405180830381855afa9150503d806000811461026d576040519150601f19603f3d011682016040523d82523d6000602084013e610272565b606091505b5091505060008180602001905181019061028c91906109d3565b9050600061029a8783610491565b905067ffffffffffffffff8111156102b157600080fd5b6040516001600160c01b031960c083811b821660208401526028830189905287901b166048820152819060009060500160408051601f1981840301815291905290506103086001600160a01b038c1633308d6104cb565b61032e61031d6001546001600160a01b031690565b6001600160a01b038d16908c61053c565b6001546001600160a01b0381169063c5a5ebda908d908d90600160a01b900461ffff166002548b876040518763ffffffff1660e01b815260040161037796959493929190610a22565b6020604051808303816000875af1158015610396573d6000803e3d6000fd5b505050506040513d601f19601f820116820180604052508101906103ba9190610a71565b505050505050505050505050565b336103db6000546001600160a01b031690565b6001600160a01b03161461041d5760405162461bcd60e51b81526020600482015260096024820152683737ba1037bbb732b960b91b604482015260640161017b565b6001600160a01b0381166104735760405162461bcd60e51b815260206004820152601c60248201527f6e65774f776e657220697320746865207a65726f206164647265737300000000604482015260640161017b565b600080546001600160a01b0319166001600160a01b03831617905550565b600060088260ff1611156104c2576104aa600883610aa4565b6104b590600a610ba1565b6104bf9084610bb0565b92505b50815b92915050565b6040516001600160a01b03808516602483015283166044820152606481018290526105369085906323b872dd60e01b906084015b60408051601f198184030181529190526020810180516001600160e01b03166001600160e01b031990931692909217909152610656565b50505050565b8015806105b65750604051636eb1769f60e11b81523060048201526001600160a01b03838116602483015284169063dd62ed3e90604401602060405180830381865afa158015610590573d6000803e3d6000fd5b505050506040513d601f19601f820116820180604052508101906105b49190610bd2565b155b6106215760405162461bcd60e51b815260206004820152603660248201527f5361666545524332303a20617070726f76652066726f6d206e6f6e2d7a65726f60448201527520746f206e6f6e2d7a65726f20616c6c6f77616e636560501b606482015260840161017b565b6040516001600160a01b03831660248201526044810182905261065190849063095ea7b360e01b906064016104ff565b505050565b60006106ab826040518060400160405280602081526020017f5361666545524332303a206c6f772d6c6576656c2063616c6c206661696c6564815250856001600160a01b03166107289092919063ffffffff16565b80519091501561065157808060200190518101906106c99190610beb565b6106515760405162461bcd60e51b815260206004820152602a60248201527f5361666545524332303a204552433230206f7065726174696f6e20646964206e6044820152691bdd081cdd58d8d9595960b21b606482015260840161017b565b6060610737848460008561073f565b949350505050565b6060824710156107a05760405162461bcd60e51b815260206004820152602660248201527f416464726573733a20696e73756666696369656e742062616c616e636520666f6044820152651c8818d85b1b60d21b606482015260840161017b565b600080866001600160a01b031685876040516107bc91906109b7565b60006040518083038185875af1925050503d80600081146107f9576040519150601f19603f3d011682016040523d82523d6000602084013e6107fe565b606091505b509150915061080f8783838761081a565b979650505050505050565b60608315610889578251600003610882576001600160a01b0385163b6108825760405162461bcd60e51b815260206004820152601d60248201527f416464726573733a2063616c6c20746f206e6f6e2d636f6e7472616374000000604482015260640161017b565b5081610737565b610737838381511561089e5781518083602001fd5b8060405162461bcd60e51b815260040161017b9190610c0d565b6000602082840312156108ca57600080fd5b5035919050565b80356001600160a01b03811681146108e857600080fd5b919050565b67ffffffffffffffff8116811461018d57600080fd5b60008060008060008060c0878903121561091c57600080fd5b610925876108d1565b9550602087013594506040870135935060608701359250608087013561094a816108ed565b915060a087013563ffffffff8116811461096357600080fd5b809150509295509295509295565b60006020828403121561098357600080fd5b61098c826108d1565b9392505050565b60005b838110156109ae578181015183820152602001610996565b50506000910152565b600082516109c9818460208701610993565b9190910192915050565b6000602082840312156109e557600080fd5b815160ff8116811461098c57600080fd5b60008151808452610a0e816020860160208601610993565b601f01601f19169290920160200192915050565b60018060a01b038716815285602082015261ffff8516604082015283606082015263ffffffff8316608082015260c060a08201526000610a6560c08301846109f6565b98975050505050505050565b600060208284031215610a8357600080fd5b815161098c816108ed565b634e487b7160e01b600052601160045260246000fd5b60ff82811682821603908111156104c5576104c5610a8e565b600181815b80851115610af8578160001904821115610ade57610ade610a8e565b80851615610aeb57918102915b93841c9390800290610ac2565b509250929050565b600082610b0f575060016104c5565b81610b1c575060006104c5565b8160018114610b325760028114610b3c57610b58565b60019150506104c5565b60ff841115610b4d57610b4d610a8e565b50506001821b6104c5565b5060208310610133831016604e8410600b8410161715610b7b575081810a6104c5565b610b858383610abd565b8060001904821115610b9957610b99610a8e565b029392505050565b600061098c60ff841683610b00565b600082610bcd57634e487b7160e01b600052601260045260246000fd5b500490565b600060208284031215610be457600080fd5b5051919050565b600060208284031215610bfd57600080fd5b8151801515811461098c57600080fd5b60208152600061098c60208301846109f656fea2646970667358221220a4590d08bea91ea8871685434e9c0ca18903c968e878df96afac886d2b7a7df664736f6c63430008110033",
        "linkReferences": {}
    },
    "methodIdentifiers": {
        "chainId()": "9a8a0592",
        "changeContractAddress(bytes32)": "43afcba1",
        "owner()": "8da5cb5b",
        "targetContractAddress()": "388ca66a",
        "tokenBridgeAddress()": "e1884919",
        "transferOwnership(address)": "f2fde38b",
        "transferTokens(address,uint256,uint256,bytes32,uint64,uint32)": "630fbd5c"
    },
    "id": 24
}